:020000040800F2
:1000000048050020D1000008D9000008DB000008E6
:1000100000000000000000000000000000000000E0
:10002000000000000000000000000000DD000008EB
:100030000000000000000000DF000008A11100081F
:10004000E3000008E3000008E3000008E300000804
:10005000E3000008E3000008E3000008E3000008F4
:10006000E3000008E3000008E3000008E3000008E4
:10007000E3000008E3000008E3000008E3000008D4
:10008000E3000008E300000800000000E3000008AF
:10009000E3000008E3000008E3000008E3000008B4
:1000A000E3000008E3000008E3000008FD15000875
:1000B000E300000800000000E30000080348854654
:1000C00000F088F8004800475D1C00084805002043
:1000D0000448804704480047FEE7FEE7FEE7FEE7E6
:1000E000FEE7FEE7AD110008BD00000830B50B4685
:1000F000014600202022012409E00D46D5409D4202
:1001000005D31D469540491B254695404019154687
:10011000521E002DF1DC30BD10B5202A04DB08464C
:10012000203AD040002110BD0B46D340D0402024BF
:10013000A21A91400843194610BDD2B201E00270E4
:10014000401C491EFBD270470022F6E710B513464B
:100150000A4604461946FFF7F0FF204610BD03216A
:10016000001D401E037812021A43491EF9D510469D
:100170007047F0B51FB40646002082B00546402403
:10018000019100901BE0019922460F463046FFF78F
:10019000C3FF049A059B801A994110D31046194653
:1001A000224600F029F8361A8F4101972246012095
:1001B0000021009F00F020F838184D4100902046A3
:1001C000641E0028DFDC019B00982946324607B0F8
:1001D000F0BD0000064C0125064E05E0E36807CCA3
:1001E0002B430C3C98471034B442F7D3FFF76AFF17
:1001F000941E0008B41E000810B5202A04DB014636
:10020000203A9140002010BD914020239C1A0346C3
:10021000E3401943904010BD06490020C8610648DC
:100220000169042211430161016940221143016106
:10023000704700002000002000200240064A0021F4
:10024000D16106490A6902231A430A6148610869B3
:100250004022104308617047200000200020024027
:1002600010B5054B0022DA61044A136901242343C7
:100270001361018010BD000020000020002002401A
:1002800010B50B4A0020D168CB060A4904D5C869CD
:1002900002231843C8611020D3685B0705D5CB69DA
:1002A00001242343CB6104210843D06010BD00002A
:1002B000002002402000002070B5054600F0C2F981
:1002C0000646104C0AE0681C08D0002D04D000F04F
:1002D000B9F9801BA84201D9032070BDE068C007AE
:1002E000F1D1E068800601D52020E060E068C0061A
:1002F00002D4E068400703D5FFF7C2FF012070BDBC
:10030000002070BD0020024070B50024014620315D
:100310004A78022A03D004218163012416E002688E
:1003200013680E25AB431360026813685B085B001B
:1003300013600122056C1346AB40C56B6B604A70BD
:1003400000220A70416B002900D08847204670BD0A
:1003500010B500210648C943016100220261C16055
:10036000C2608162826200F09CF9002010BD000032
:100370000010024031B500F065F9009C0546601C94
:1003800000D0641C00F05EF9401BA042FAD338BDD7
:10039000F8B5054623480F46017E012601290BD0FA
:1003A000012101762868204C012807D02046FFF75C
:1003B00083FF002813D030E00220F8BD2046FFF76D
:1003C0007BFF002829D1FFF727FF2046FFF774FFA6
:1003D0000646164801690422914301611DE0002090
:1003E000C04338606C6812E02046FFF727FF0E48D4
:1003F000FFF762FF06460D48026902218A43026147
:10040000002E01D03C6008E0012080022418A8687A
:10041000810268680818A042E6D8024800210176E7
:100420003046F8BD2000002050C3000000200240EC
:1004300003480169802211430161002070470000D8
:1004400000200240F0B51FB407461A480024017E80
:1004500015461E46012907D0012101761648FFF7EF
:100460002BFF002803D020E0022005B0F0BD012FB3
:1004700002D0022F00D00427220128463146FFF780
:100480004BFE81B2019862001018FFF7E9FE0A489E
:10049000FFF712FF09490A69520852000A61002851
:1004A00003D1641CE4B2BC42E6D3024900220A76BE
:1004B000DBE700002000002050C3000000200240C5
:1004C00005480169090605D50449416004494160B0
:1004D000002070470120704700200240230167453B
:1004E000AB89EFCDF8B500238DE001249C40A446F4
:1004F00022407DD04C68022C01D0122C0CD1DC089B
:10050000A40027183C6A5D07ED0E0F26AE40B443E9
:100510000E69AE4026433E6205685E000324B44087
:100520000F79A543BF07BF0FB7402F4307604D6842
:10053000012D05D0022D03D0112D01D0122D0ED189
:100540008568CF68A543B7402F43876047686546F5
:10055000AF430D79ED06ED0F9D403D434560C56805
:10056000A5438C68B4402C43C4604C68E40049D572
:10057000284CA56901263543A561A4699D0834402E
:100580000094254CAD002F19BC689D072E0F0F2538
:10059000B540AC430925ED06A84201D100250FE086
:1005A0001E4DA84201D101250AE01D4DA84201D1EE
:1005B000022505E01B4DA84201D1032500E00525D9
:1005C000B5402543BD60184C25684E689543F60339
:1005D00000D51543256065684E689543B60300D580
:1005E00015436560A5684E689543F60202D500E0A4
:1005F00008E01543A560E5684E689543B60200D54E
:100600001543E5605B1C0A681446DC4000D06CE7CB
:10061000F8BD000000100240000001400004004846
:1006200000080048000C0048000401400069084030
:1006300000D001207047002A01D08161704781629B
:100640007047000001480068704700000400002067
:1006500002480168491C0160704700000400002046
:1006600010B506480168102211430160002000F017
:1006700007F800F017F8002010BD0000002002402D
:1006800010B5044600F070F97D21C900FFF72EFD7A
:1006900000F074FB00222146501E00F029F80020D3
:1006A00010BD704708B50C48816901221143816172
:1006B00080691040002200901146501F00F018F889
:1006C00000221146901E00F013F800221146501E21
:1006D00000F00EF808BD000000100240C106C90E6F
:1006E00001208840014908607047000000E100E0F7
:1006F00010B500F033FD10BDF8B505460068394C63
:10070000C00352D5E0690026C00007D4E169200487
:100710000143E161E169014001260091324801682D
:10072000C90510D40168821511430160FFF78AFFE3
:10073000074604E0FFF786FFC01B642824D82A4838
:100740000068C005F6D5206A03273F02384020D054
:100750006968394081421CD0206A226AB84301216D
:1007600009040A432262226A8A4322622062C00785
:100770000FD0FFF767FF009008E0FFF763FF0099D5
:10078000411A1A48814201D90320F8BD206A800726
:10079000F3D5206A6968B84308432062002E04D06C
:1007A000E169012000078143E1612878C00705D095
:1007B000206BA968800880000843206328788006A1
:1007C00005D5206B10218843E968084320632888F9
:1007D000400505D5206B40218843296908432063E3
:1007E0000020F8BD00100240007000408813000097
:1007F000F8B5054644480E460068C007C00FB04231
:100800000AD2414801684908490031430160006843
:10081000C007C00FB0425CD128783C4C800705D59A
:100820006068F0218843A968084360602878C007A1
:100830003FD06868012813D02168022813D08907A7
:10084000002946DA61688908890001436160FFF781
:10085000F9FE6968074601290DD0022917D024E066
:1008600021688903ECE78901EAE7FFF7EBFEC11B8A
:100870002748814217D860680007800F0128F4D10B
:1008800017E0FFF7DFFEC11B214881420BD86068EB
:100890000007800F0228F4D10BE0FFF7D3FEC11B45
:1008A0001B48814201D90320F8BD60680007800F12
:1008B000F3D115480168C907C90FB1420BD90168C6
:1008C00049084900314301600068C007C00FB042C9
:1008D00001D00120F8BD2878400706D560680721BF
:1008E00009028843E9680843606000F053F86168D2
:1008F000084A0906090F515CC840074908600020F2
:10090000FFF7BEFE0020F8BD0020024000100240AC
:10091000881300007A1E0008000000200D480168BE
:1009200081221143016041680B4A11404160016816
:100930000A4A11400160016801229204914301605A
:1009400000214160C162016381600649044808607A
:1009500070470000001002400CF8FFF0FFFFF6FEA9
:1009600000127A0000000020014800687047000073
:10097000000000200448054900684968044A490508
:10098000490F515CC8407047000000200010024031
:100990008A1E000810B512A30FCB88B06C460FC496
:1009A00013A30FCB0FC416494A680C20134603400B
:1009B0001448042B0FD0082B0DD193021B0F6C464B
:1009C000E45CC96A04AB0907090F595CD20304D57A
:1009D000FFF78CFB604308B010BD0B486043FAE79B
:1009E00002030405060708090A0B0C0D0E0F101070
:1009F0000102030405060708090A0B0C0D0E0F106F
:100A00000010024000127A0000093D00FEB50446C5
:100A10000078D04DC00747D068680007800F0128D4
:100A200007D068680007800F022809D16868C003F2
:100A300006D52868800337D5606800287ED033E06B
:100A4000012062680004012A11D08100002A01D02F
:100A5000052A10D02A6882432A60286888432860C3
:100A60006068002814D0FFF7EDFD06460CE0296809
:100A700001432960F4E72A680A432A60F7E7FFF791
:100A8000E1FD801B64286FD828688003F7D50BE050
:100A9000FFF7D8FD064604E0FFF7D4FD801B64286D
:100AA000F1D828688003F7D4207801268007002831
:100AB0003BDA68680007800F07D068680007800F7E
:100AC000022809D16868C00306D42868800715D5B4
:100AD000E068012832D111E0E0680028286815D0CC
:100AE00030432860FFF7AEFD074604E0FFF7AAFD9C
:100AF000C01B0228C7D828688007F7D52868F821C6
:100B000088432169C900084328600EE0400840007E
:100B10002860FFF797FD074604E0FFF793FDC01B31
:100B20000228B0D828688007F7D42078000724D599
:100B3000E0690028686A10D0304300E008E168628C
:100B4000FFF780FD074604E0FFF77CFDC01B02288D
:100B500099D8686A8007F7D50FE0400840006862BE
:100B6000FFF770FD074605E09DE0FFF76BFDC01B3A
:100B7000022888D8686A8007F7D4207804274007BD
:100B8000002860DA00200190E869C00008D4E96913
:100B9000B8060143E961E969014001200091019033
:100BA0006D480168C90511D40168821511430160BF
:100BB000FFF748FD009005E0FFF744FD0099401A5B
:100BC000642870D864480068C005F5D5A06801287D
:100BD0000AD0002801D0052810D0286A400840001B
:100BE0002862286AB84301E0286A30432862A06876
:100BF000002812D0FFF726FD00900AE0286A38434B
:100C00002862F1E7FFF71EFD0099411A534881421F
:100C100049D8286A8007F5D50DE0FFF713FD00904D
:100C200006E0FFF70FFD0099411A4C4881423AD87F
:100C3000286A8007F5D40198002804D0E9690120CA
:100C400000078143E9612078C00635D56069012835
:100C50000CD0401D686B23D038436863686B400834
:100C600040006863FFF7EEFC064622E0686B3843FD
:100C70006863686B30436863FFF7E4FC064604E092
:100C8000FFF7E0FC801B02285BD8686B8007F7D574
:100C9000686BF8218843A169C900084368630BE0C9
:100CA000B8436863F4E74CE0FFF7CCFC801B0228F4
:100CB00047D8686B8007F7D4206A002846D0696857
:100CC0000907890F022943D0012636060228286821
:100CD00005D0B0432860FFF7B5FC044633E0B043CD
:100CE0002860FFF7AFFC074604E0FFF7ABFCC01B32
:100CF000022826D828688001F7D4E86AE16A00094A
:100D000000010843E862616AA06A084369683D22FD
:100D10001204914308436860286830432860FFF755
:100D200091FC044604E0FFF78DFC001B022808D864
:100D300028688001F7D509E0FFF784FC001B022832
:100D400001D90320FEBD28688001F5D40020FEBD36
:100D50000120FEBD0010024000700040881300001A
:100D6000042204490428086902D0904308617047AE
:100D70001043FBE700E000E070470000094910B5B0
:100D8000401E884201D9012010BD074C606103213B
:100D9000081F00F0E3F90020A06107202061002077
:100DA00010BD0000FFFFFF0000E000E010B5FFF7FE
:100DB000E3FF10BD70477047F8B503680446D86973
:100DC000196805072D0F07D1820605D58A0603D5B8
:100DD000204600F0D9FAF8BD9A68002D64D0D507F6
:100DE000ED0FFF2621360E402E435DD0C60706D0FC
:100DF000CE0504D501261E62E36E3343E366870702
:100E000002230426002F06DAD70704D027683B62A6
:100E1000E76E3743E766470706D5D20704D0226856
:100E20001662E26E1A43E266020709D520220A40E2
:100E30002A4305D0236808221A62E36E1343E3664F
:100E4000E26E002AC7D0800604D5880602D5204667
:100E500000F09AFAE06E000703D42068806840062C
:100E60001CD5204600F074FA20688168490611D527
:100E70008168402291438160606E00280AD01A493F
:100E80004163606EFFF740FA0028A4D0606E416BAA
:100E90008847F8BD2046FFF78EFFF8BD2046FFF7D4
:100EA0008AFF0020E066F8BDC5020DD552020BD5C1
:100EB00001200005186220212046603041728172B5
:100EC0002046FFF777FFF8BD020605D50A0603D5D1
:100ED000204600F02FFBF8BD4006FCD54806FAD5A9
:100EE000204600F044FAF8BD3D13000870B5040038
:100EF00005D025466035687A002802D006E001203A
:100F000070BD00202872204600F026F82420687268
:100F100020680168490849000160204600F072FA23
:100F20000128EDD0606A002802D0204600F06CF95C
:100F3000206841680922D20291434160206881689B
:100F40002A229143816020680168012211430160D7
:100F5000204600F0BFF970BD00B50068124987B0A7
:100F600088421FD111488269012189030A438261A5
:100F70008069084005900320400200900220019003
:100F80000121032003900291049109206946C006C3
:100F9000FFF7A8FA002211461B20FFF7A9FB1B2030
:100FA000FFF79CFB07B000BD003801400010024075
:100FB00070B5034660339C7A202C39D100290BD0C0
:100FC000002A09D0012584682D03AC4206D10669A8
:100FD000002E03D1CE0701D0012070BD1E7A012E54
:100FE00026D001261E724165014640310A834A839C
:100FF000FF22AC4204D10469002C07D10D4A05E060
:10100000002C04D10469002C00D07F228A830021A7
:10101000C16622229A72197201688A6832438A6014
:1010200000680168FF22213211430160002070BD79
:10103000022070BDFF01000070B5006811498842B0
:1010400014D1114800250178041F01263A290ED039
:10105000001F80780A2910D00C4A1154401CA0703F
:101060000A48012208496430FFF7A2FF70BD00F072
:101070004FFE2570E5706670F2E72070A570E6708F
:101080006570EDE7003801400C00002040000020B2
:10109000FFB5064604466036707A83B00D462028B8
:1010A00058D1002D0CD00598002809D00120A16846
:1010B0000003814207D12069002804D1E80702D04B
:1010C000012007B0F0BD307A012843D001203072F2
:1010D0000020E06621207072FFF7B4FA01902746E5
:1010E0004037059838820598788218E0788A401E43
:1010F000788206980090002280212046019B00F013
:101100004CFA002818D10120A1680003814202D1C5
:101110002069002812D02168287808856D1C788AFB
:101120000028E3D106980090002240212046019B30
:1011300000F033FA002808D00320C2E7288821688D
:10114000C005C00D0885AD1CE9E7202070720020A5
:101150003072B6E70220B4E7704700008307FF2231
:10116000DB0E9A408907090E994000280BDA000728
:10117000000F0838830808489B001818C369934378
:101180000B43C3617047830804489B001B18186811
:10119000904308431860704700ED00E000E400E071
:1011A00010B5FFF755FAFFF701FE10BD13480168AF
:1011B0000122114301604168114A114041600168F8
:1011C000104A1140016001680122920491430160BC
:1011D00041683F22120491434160C16A0909090133
:1011E000C162016BFF22543291430163416B490894
:1011F00049004163002181607047000000100240F7
:101200000CB8FFF8FFFFF6FE10B5818CC90707D0B8
:1012100001684A6801235B049A43836A1A434A605F
:10122000818C890707D501684A6801231B049A430A
:10123000C36A1A434A60818C490707D501684A6826
:1012400001239B049A43036B1A434A60818C09076C
:1012500007D501684A680123DB039A43436B1A43AD
:101260004A60818CC90607D50268916801231B0377
:101270009943836B19439160818C890607D5016876
:101280008A6801235B039A43C36B1A438A60818C8B
:10129000490612D503685A6801210905046C8A437E
:1012A00022435A60026C8A4207D1026851680323C4
:1012B0005B059943436C19435160818C090607D53E
:1012C00001684A680123DB04806C9A4302434A6048
:1012D00010BD0000F8B500260446C666FFF7B2F957
:1012E00005461449206888421DD10068124F000746
:1012F00009D501212B46002249052046009700F020
:101300004CF900280DD12068006840070BD5012159
:101310002B46002289052046009700F03EF9002860
:1013200001D00320F8BD202060346072A0722672C4
:101330000020F8BD00380140FFFFFF0110B5406AF2
:101340000022014640314A834A82FFF734FD10BD36
:1013500001680A68FF2321339A430A6001688A689A
:10136000520852008A60202160308172704710B5A7
:1013700001680A6840239A430A60202269210A54BE
:10138000FFF7EAFE002010BD70B50246403203466A
:101390006033948B9D7A0168222D05D088690822DC
:1013A00010438861022070BD898C01268568360350
:1013B000B54202D10569002D0BD02140446D651C5A
:1013C00045652170518B491E0904090C518307D0D2
:1013D00015E0456D21402980416D891C4165F1E78B
:1013E00001680A68FF242134A2430A6001688A6800
:1013F000520852008A6020219972FFF71DFE0020DA
:1014000070BD0000F8B504462369A268E5691A4377
:10141000636910202B43002125681A432B680E4670
:101420003E4F3B4013432B6023685A6803252D032E
:10143000AA43E5682A435A60236AA26925681A43C9
:10144000AB680B273F02BB431343AB60344A2568AC
:10145000954210D1334A126B9207920F0ED0012A97
:1014600005D0022A05D0032A09D1022007E0042072
:1014700005E0082003E02C4A954200D1002001221B
:10148000E369D203934224D100280CD002280DD066
:10149000042813D0082817D001260A0912010807CA
:1014A000400F10432FE0FFF765FA09E061681F4A1B
:1014B00048088018FEF71AFE81B2EEE7FFF76AFAD5
:1014C000616840004A08F4E7616801224808120494
:1014D000EFE7002808D0022809D004280BD00828FC
:1014E00014D001263046F8BDFFF744FA05E06168E4
:1014F0000F4A48080CE0FFF74DFA61684A08801867
:10150000FEF7F4FD80B22168C860EBE76168480827
:101510008018FEF7EBFD80B2E860E3E7F369FFFFB8
:101520000038014000100240004400400024F40054
:1015300000127A006921095C212901D0022070473C
:1015400002464032518A002912D0012381681B03D0
:10155000994202D10169002915D0C16C4B1CC364AA
:10156000006809780185508A401E5082002070472B
:1015700001680A6880239A430A6000680168402273
:1015800011430160F2E7C16C03680988C905C90D00
:101590001985C16C891CC164E5E7FFB581B01746A8
:1015A0000E4604460A9D1DE0681C1BD0002D05D088
:1015B000FFF748F80499401AA84213D92068016837
:1015C000FF22A132914301602068816849084900E7
:1015D0008160202060346072A0720020207203209D
:1015E00005B0F0BD2068C1693046884304D00020B2
:1015F000B842D9D00020F3E70120F9E710B502483E
:10160000FFF7DAFB10BD0000A4000020FEE7000099
:101610000FB410B504A9074B02AA039800F01CF8F8
:10162000044602A9002000F085F9204610BC08BC41
:1016300004B018473519000802E008C8121F08C195
:10164000002AFAD170477047002001E001C1121F43
:10165000002AFBD170470000FFB58FB00F4604464B
:10166000002606E025280AD0129A11999047641C9A
:10167000761C20780028F5D1304613B0F0BD002547
:101680000121A14A009500E00543641C2378084627
:10169000203B98401042F7D120782E2815D1042005
:1016A00005436078641C2A280AD101CF641C00908D
:1016B0000BE000990A22514330394018641C009015
:1016C0002078014630390929F3D920786C280ED0CA
:1016D00004DC4C2813D06A2812D104E074280ED000
:1016E0007A280DD10BE001204005054307E00121D8
:1016F000090562780D43824201D16D18641C641C97
:101700002078864669284AD008DC0028B4D05828BA
:101710006DD0632810D0642808D140E070286BD0C9
:10172000732812D0752860D0782860D0129A70463D
:1017300011999047761CE5E03878694608720020D8
:10174000487202A80190012003E03868019000204F
:10175000C0433F1D69070CD5002500E06D1C0099B2
:101760008D420FDA8542F9DB0199495D0029F5D1F7
:1017700008E0002500E06D1C8542FCDB0199495D15
:101780000029F8D1761907E0019801990078491CE1
:101790000191129A119990476D1EF5D2B2E00A207C
:1017A000029000216802400F039102280CD001CF63
:1017B000C117844600290DDA6246084652420021CC
:1017C000814194462D2008E0FF1DFF08FF0003CF54
:1017D0008446EFE7280504D52B206A4610740120C3
:1017E0003CE0E8073AD02020F7E70A2000E010208C
:1017F00000210391029007E01020029000210420B4
:1018000005430820039100906802400F022810D081
:1018100001CF0021844600200D9028071FD5704677
:1018200070280CD0029A1020039B42401A430CD01F
:1018300015E0FF1DFF08FF0003CF8446EBE74020C3
:101840006A46107401200D900CE06046084306D0F3
:1018500030206A4610747046507402200D90704615
:10186000582804D029A001900DA80E900DE02CA0BE
:10187000F9E76046039B029AFEF77BFC019B8446D6
:101880009B5C0E9A521E0E92137060460843F0D174
:101890000E9805A9081A20300190680701D5009814
:1018A00001E0012000900199884203DD0146019882
:1018B000081A00E000200025009006E004A8129A13
:1018C000405D119990476D1C761C0D988542F5DBA3
:1018D00004E0129A302011999047761C0099481E16
:1018E00000900029F5DC08E00E980E990078491C5C
:1018F0000E91129A11999047761C0199481E0190F9
:101900000029F1DC641CB4E60928010030313233CF
:10191000343536373839616263646566000000002B
:101920003031323334353637383941424344454615
:10193000000000000A68531C0B6010707047000024
:1019400010B504490020087032210348FEF7FCFB63
:1019500010BD0000100000201401002010B500236D
:1019600001781A46091D03E0845CE318DBB2521CBF
:101970009142F9DCD843401CC0B210BD0248006857
:10198000401C00D00120704700400008F8B500F06E
:10199000C7F9334C00285CD0324800F0F3F93148E5
:1019A00001468A784B78077811021943C0784DBAFE
:1019B000002818D0012839D004283CD12948417981
:1019C00002790802104340BA0004606000F0C2F9D6
:1019D00025A000F0ADF90120C00660601921234860
:1019E00000F0AEF827E0002F25D000261BE01D48B0
:1019F00080190090001DFEF7B2FB01020098090A51
:101A0000C0790006014300916068284300F0A2F904
:101A100017A000F08DF960680099284300F0BEF827
:101A20002D1DADB2361DBE42E1DB04E011A000F079
:101A30007FF9012020700B48FFF790FF12A000F003
:101A400077F900F05FF900F063F932210548FEF7FD
:101A50007BFB2078002801D000F018F8F8BD0000CA
:101A60001000002014010020202000000040000889
:101A70002000000020466C6173682057726974650D
:101A800020446F6E650000000A00000070B5FFF78B
:101A900075FF00280FD0084D6C68FEF73FFFFEF77A
:101AA00057FC0649002008614861886172B62868C1
:101AB00080F30888A04770BD0040000800E000E007
:101AC00070B5FFF763FF0925ED0601212846FEF7F3
:101AD000ADFD01281ED1FEF7B5FDFF2604462D36CB
:101AE00001212846FEF7A2FD002804D0FEF7AAFD3A
:101AF000001BB042F4D301212846FEF797FD0028D1
:101B000008D105A000F034F9FF20F530FEF732FCD3
:101B1000FFF7BCFF70BD0000476F696E6720746FF0
:101B2000206A756D7020746F206170706C696361DC
:101B300074696F6E206164647265737300000000E5
:101B40000EB50022009202910190FEF7B9FC0849FF
:101B50006846FEF71DFC002801D006A000E00AA0A0
:101B600000F0E6F80CA000F0E3F8FEF761FC0EBD13
:101B70001800002020466C6173682045726173650F
:101B8000204552524F52000020466C617368204538
:101B900072617365204F4B002020000070B50C4629
:101BA0000546FEF78DFC2246002329460220FEF75B
:101BB00049FC002801D008A006E0296809484160D6
:101BC0004068A042F7D108A000F0B2F808A000F0E9
:101BD000AFF8FEF72DFC70BD522F57204552524FE3
:101BE0005200000018000020522F57204F4B0000D9
:101BF00020000000F0B5164887B042690121490471
:101C00000A43426142690A400592426989000A43D7
:101C100042614069032608400E4F360205900022BB
:101C200031463846FEF707FD0B4801250024019098
:101C30006946009502948002FEF754FC02946946BE
:101C40003846009601950394FEF74CFC07B0F0BDB2
:101C5000001002400008004800001210FEF700FDCE
:101C600000F0D0F8FFF7C6FF00F010F803A000F076
:101C70007FF8FFF765FEFFF723FFFCE7426F6F7405
:101C80006C6F61646572206D61696E0010B51348F8
:101C9000114901604B21C901416000218160C1608F
:101CA000016181610C22C16142610162A022426234
:101CB00001225203C2638164FFF718F9002803D0A0
:101CC0001D2107A0FFF7A2FC01220D490348FFF7E1
:101CD0006FF900F01DF810BD00380140A40000208D
:101CE0002E2E5C426F6F746C6F616465722D436F52
:101CF00064655C53657269616C5461736B2E63003B
:101D00000C00002001490020C87070470800002026
:101D100010B564210148FEF717FA10BD40000020FD
:101D20000248C078012800D0002070470800002039
:101D300038B5044607E0694608700A2301220448C2
:101D4000641CFFF7A5F920780028F4D138BD000005
:101D5000A400002000B585B0024604A16846FFF744
:101D600057FC6846FFF7E4FF05B000BD257800008A
:101D700010B5FFF7DDFF02A0FFF7DAFF10BD00008E
:101D80000A000000F0B51D498DB000220B781C4CF4
:101D90006D4614E0A15C0E46303E092E01D8F1B22A
:101DA0000BE00E46613E052E01D8573904E00E4681
:101DB000413E052E01D83739C9B2A954521C1946E3
:101DC0009A42E7DB4F088446AE46002311E05900F3
:101DD00070460E18022500210A46A81A8000B45C3D
:101DE000001F84402143521CAA42F6DB6046C154C6
:101DF0005B1CBB42EBDB0DB0F0BD00000800002017
:101E00004000002070B596B00024102009940225EF
:101E10000490052001260095C00403960A900895B9
:101E20000B946846FEF7F2FD002800D0FEE707207D
:101E30000C900E9401210D950F940CA8FEF7D8FC80
:101E4000002800D0FEE710A810961294FEF754FC6C
:101E5000002800D0FEE7FEF787FD7D21C900FEF7D0
:101E600045F9FEF78BFF0420FEF77AFF00221146AA
:101E7000501EFEF73DFC16B070BD000000000000D3
:101E80000000010203040607080900000000010227
:101E900003040000B41E0008000000202000000021
:101EA00038160008D41E0008200000202805000075
:101EB0004816000800127A00000000000000000030
:101EC0000000000000000000000000000000000012
:041ED000000000000E
:04000005080000BD32
:00000001FF
