:020000040800F2
:1000000018050020D1000008D9000008DB00000816
:1000100000000000000000000000000000000000E0
:10002000000000000000000000000000DD000008EB
:100030000000000000000000DF000008B50E00080E
:10004000E3000008E3000008E3000008E300000804
:10005000E3000008E3000008E3000008E3000008F4
:10006000E3000008E3000008E3000008E3000008E4
:10007000E3000008E3000008E3000008E3000008D4
:10008000E3000008E300000800000000E3000008AF
:10009000E3000008E3000008E3000008E3000008B4
:1000A000E3000008E3000008E300000889130008EB
:1000B000E300000800000000E30000080348854654
:1000C00000F02AF8004800473D15000818050020F8
:1000D0000448804704480047FEE7FEE7FEE7FEE7E6
:1000E000FEE7FEE7390F0008BD00000830B50B46FB
:1000F000014600202022012409E00D46D5409D4202
:1001000005D31D469540491B254695404019154687
:10011000521E002DF1DC30BD064C0125064E05E0D7
:10012000E36807CC2B430C3C98471034B442F7D318
:10013000FFF7C8FF101600083016000838B504464F
:1001400007E0694608700A2301220448641C00F095
:10015000D5FD20780028F4D138BD00001000002023
:1001600070B50024014620314A78022A03D00421C8
:100170008163012416E0026813680E25AB43136007
:10018000026813685B085B0013600122056C13466C
:10019000AB40C56B6B604A7000220A70416B00294E
:1001A00000D08847204670BDF8B500238DE00124BB
:1001B0009C40A44622407DD04C68022C01D0122CD9
:1001C0000CD1DC08A40027183C6A5D07ED0E0F2651
:1001D000AE40B4430E69AE4026433E6205685E0001
:1001E0000324B4400F79A543BF07BF0FB7402F4387
:1001F00007604D68012D05D0022D03D0112D01D0CF
:10020000122D0ED18568CF68A543B7402F43876074
:1002100047686546AF430D79ED06ED0F9D403D43C0
:100220004560C568A5438C68B4402C43C4604C68E5
:10023000E40049D5284CA56901263543A561A46988
:100240009D0834400094254CAD002F19BC689D07D3
:100250002E0F0F25B540AC430925ED06A84201D16C
:1002600000250FE01E4DA84201D101250AE01D4DD9
:10027000A84201D1022505E01B4DA84201D103256A
:1002800000E00525B5402543BD60184C25684E6843
:100290009543F60300D51543256065684E68954380
:1002A000B60300D515436560A5684E689543F60210
:1002B00002D500E008E01543A560E5684E68954367
:1002C000B60200D51543E5605B1C0A681446DC40A5
:1002D00000D06CE7F8BD00000010024000000140B3
:1002E0000004004800080048000C004800040140D9
:1002F000002A01D08161704781627047014800681F
:10030000704700000400002002480168491C016099
:10031000704700000400002010B506480168102254
:1003200011430160002000F007F800F017F80020EA
:1003300010BD00000020024010B5044600F04AF94C
:100340007D21C900FFF7D2FE00F04EFB00222146BE
:10035000501E00F029F8002010BD000008B50C4820
:10036000816901221143816180691040002200905F
:100370001146501F00F018F800221146901E00F0A0
:1003800013F800221146501E00F00EF808BD0000C0
:1003900000100240C106C90E0120884001490860D2
:1003A0007047000000E100E010B500F061FD10BDF5
:1003B000F8B505460068394CC00352D5E0690026FF
:1003C000C00007D4E16920040143E161E169014013
:1003D0000126009132480168C90510D401688215D0
:1003E00011430160FFF78AFF074604E0FFF786FF2D
:1003F000C01B642824D82A480068C005F6D5206AA6
:1004000003273F02384020D06968394081421CD020
:10041000206A226AB843012109040A432262226A3F
:100420008A4322622062C0070FD0FFF767FF009067
:1004300008E0FFF763FF0099411A1A48814201D989
:100440000320F8BD206A8007F3D5206A6968B843A5
:1004500008432062002E04D0E16901200007814397
:10046000E1612878C00705D0206BA968800880006A
:10047000084320632878800605D5206B1021884327
:10048000E968084320632888400505D5206B402192
:1004900088432969084320630020F8BD001002400A
:1004A0000070004088130000F8B5054644480E4629
:1004B0000068C007C00FB0420AD24148016849082D
:1004C0004900314301600068C007C00FB0425CD1F1
:1004D00028783C4C800705D56068F0218843A968DE
:1004E000084360602878C0073FD06868012813D0AF
:1004F0002168022813D08907002946DA6168890833
:10050000890001436160FFF7F9FE69680746012928
:100510000DD0022917D024E021688903ECE7890176
:10052000EAE7FFF7EBFEC11B2748814217D8606856
:100530000007800F0128F4D117E0FFF7DFFEC11B91
:10054000214881420BD860680007800F0228F4D14F
:100550000BE0FFF7D3FEC11B1B48814201D90320EA
:10056000F8BD60680007800FF3D115480168C9071E
:10057000C90FB1420BD901684908490031430160F4
:100580000068C007C00FB04201D00120F8BD287834
:10059000400706D56068072109028843E9680843D7
:1005A000606000F02DF86168084A0906090F515C87
:1005B000C840074908600020FFF7BEFE0020F8BDD4
:1005C000002002400010024088130000F8150008C7
:1005D0000000002001480068704700000000002073
:1005E0000448054900684968044A4905490F515CB7
:1005F000C8407047000000200010024008160008A4
:1006000010B512A30FCB88B06C460FC413A30FCB49
:100610000FC416494A680C20134603401448042BA3
:100620000FD0082B0DD193021B0F6C46E45CC96AF6
:1006300004AB0907090F595CD20304D5FFF756FD37
:10064000604308B010BD0B486043FAE7020304059D
:10065000060708090A0B0C0D0E0F10100102030407
:1006600005060708090A0B0C0D0E0F1000100240BA
:1006700000127A0000093D00FEB504460078D04D16
:10068000C00747D068680007800F012807D0686856
:100690000007800F022809D16868C00306D52868C2
:1006A000800337D5606800287ED033E0012062687F
:1006B0000004012A11D08100002A01D0052A10D09F
:1006C0002A6882432A602868884328606068002876
:1006D00014D0FFF713FE06460CE029680143296099
:1006E000F4E72A680A432A60F7E7FFF707FE801B52
:1006F00064286FD828688003F7D50BE0FFF7FEFD6C
:10070000064604E0FFF7FAFD801B6428F1D828684C
:100710008003F7D420780126800700283BDA686838
:100720000007800F07D068680007800F022809D1F2
:100730006868C00306D42868800715D5E0680128DA
:1007400032D111E0E0680028286815D030432860D5
:10075000FFF7D4FD074604E0FFF7D0FDC01B0228D9
:10076000C7D828688007F7D52868F8218843216909
:10077000C900084328600EE0400840002860FFF7E9
:10078000BDFD074604E0FFF7B9FDC01B0228B0D845
:1007900028688007F7D42078000724D5E06900286E
:1007A000686A10D0304300E008E16862FFF7A6FDF8
:1007B000074604E0FFF7A2FDC01B022899D8686A2B
:1007C0008007F7D50FE0400840006862FFF796FD0C
:1007D000074605E09DE0FFF791FDC01B022888D881
:1007E000686A8007F7D4207804274007002860DA79
:1007F00000200190E869C00008D4E969B806014307
:10080000E961E96901400120009101906D480168AA
:10081000C90511D40168821511430160FFF76EFD0F
:10082000009005E0FFF76AFD0099401A642870D82F
:1008300064480068C005F5D5A06801280AD00028E2
:1008400001D0052810D0286A400840002862286A94
:10085000B84301E0286A30432862A068002812D01B
:10086000FFF74CFD00900AE0286A38432862F1E760
:10087000FFF744FD0099411A5348814249D8286A3C
:100880008007F5D50DE0FFF739FD009006E0FFF792
:1008900035FD0099411A4C4881423AD8286A8007B0
:1008A000F5D40198002804D0E969012000078143AC
:1008B000E9612078C00635D5606901280CD0401D5B
:1008C000686B23D038436863686B400840006863F6
:1008D000FFF714FD064622E0686B38436863686BD7
:1008E00030436863FFF70AFD064604E0FFF706FDA4
:1008F000801B02285BD8686B8007F7D5686BF821EE
:100900008843A169C900084368630BE0B843686382
:10091000F4E74CE0FFF7F2FC801B022847D8686B35
:100920008007F7D4206A002846D069680907890F34
:10093000022943D0012636060228286805D0B04394
:100940002860FFF7DBFC044633E0B0432860FFF784
:10095000D5FC074604E0FFF7D1FCC01B022826D8CF
:1009600028688001F7D4E86AE16A000900010843B9
:10097000E862616AA06A084369683D2212049143F3
:1009800008436860286830432860FFF7B7FC0446D6
:1009900004E0FFF7B3FC001B022808D82868800198
:1009A000F7D509E0FFF7AAFC001B022801D90320B4
:1009B000FEBD28688001F5D40020FEBD0120FEBDEB
:1009C0000010024000700040881300000422044917
:1009D0000428086902D09043086170471043FBE780
:1009E00000E000E070470000094910B5401E884251
:1009F00001D9012010BD074C60610321081F00F0E0
:100A000037FA0020A06107202061002010BD0000FF
:100A1000FFFFFF0000E000E010B5FFF7E3FF10BDAF
:100A200070477047F8B503680446D8691968050728
:100A30002D0F07D1820605D58A0603D5204600F082
:100A400069FBF8BD9A68002D64D0D507ED0FFF262D
:100A500021360E402E435DD0C60706D0CE0504D504
:100A600001261E62E36E3343E366870702230426F2
:100A7000002F06DAD70704D027683B62E76E3743BA
:100A8000E766470706D5D20704D022681662E26EF1
:100A90001A43E266020709D520220A402A4305D0FC
:100AA000236808221A62E36E1343E366E26E002AAB
:100AB000C7D0800604D5880602D5204600F02AFB60
:100AC000E06E000703D42068806840061CD52046ED
:100AD00000F004FB20688168490611D58168402236
:100AE00091438160606E00280AD01A494163606EAC
:100AF000FFF736FB0028A4D0606E416B8847F8BD35
:100B00002046FFF78EFFF8BD2046FFF78AFF002042
:100B1000E066F8BDC5020DD552020BD501200005D7
:100B20001862202120466030417281722046FFF712
:100B300077FFF8BD020605D50A0603D5204600F06A
:100B4000BFFBF8BD4006FCD54806FAD5204600F0AC
:100B5000D4FAF8BDC910000870B5040005D02546C8
:100B60006035687A002802D006E0012070BD0020C0
:100B70002872204600F026F8242068722068016858
:100B8000490849000160204600F002FB0128EDD031
:100B9000606A002802D0204600F0FCF92068416815
:100BA0000922D20291434160206881682A22914340
:100BB000816020680168012211430160204600F035
:100BC0004FFA70BD00B50068124987B088421FD146
:100BD00011488269012189030A43826180690840C2
:100BE0000590032040020090022001900121032083
:100BF00003900291049109206946C006FFF7D4FAD8
:100C0000002211461B20FFF7CFFB1B20FFF7C2FB82
:100C100007B000BD003801400010024070B5034627
:100C200060339C7A202C39D100290BD0002A09D0BE
:100C3000012584682D03AC4206D10669002E03D13C
:100C4000CE0701D0012070BD1E7A012E26D00126CC
:100C50001E724165014640310A834A83FF22AC423D
:100C600004D10469002C07D10D4A05E0002C04D101
:100C70000469002C00D07F228A830021C1662222D1
:100C80009A72197201688A6832438A600068016842
:100C9000FF22213211430160002070BD022070BD8F
:100CA000FF01000010B50068114988421ED11148AB
:100CB00000240278104B002A05D100215C54491C05
:100CC000C9B26429FAD30B49891C09780A2903D0CF
:100CD0009954521C027002E00470012141700549D0
:100CE00005480122891C7038FFF798FF10BD0000ED
:100CF000003801400800002080000020FFB50646B3
:100D000004466036707A83B00D46202858D1002DF5
:100D10000CD00598002809D00120A1680003814269
:100D200007D12069002804D1E80702D0012007B0CC
:100D3000F0BD307A012843D0012030720020E066F7
:100D400021207072FFF7DAFA0190274640370598A4
:100D500038820598788218E0788A401E7882069852
:100D60000090002280212046019B00F0DCFA002840
:100D700018D10120A1680003814202D12069002816
:100D800012D02168287808856D1C788A0028E3D164
:100D900006980090002240212046019B00F0C3FAF3
:100DA000002808D00320C2E728882168C005C00DAC
:100DB0000885AD1CE9E72020707200203072B6E78C
:100DC0000220B4E770470000F0B5164887B04269CA
:100DD000012149040A43426142690A40059242697D
:100DE00089000A4342614069032608400E4F3602DB
:100DF0000590002231463846FFF77AFA0B48012564
:100E0000002401906946009502948002FFF7CCF916
:100E1000029469463846009601950394FFF7C4F999
:100E200007B0F0BD0010024000080048000012109A
:100E300010B50E480C4901604B21C90141600021E9
:100E40008160C160016181610C22C1614261016206
:100E5000A022426201225203C2638164FFF77CFE3A
:100E6000002800D0FEE710BD00380140100000202F
:100E70008307FF22DB0E9A408907090E994000285C
:100E80000BDA0007000F0838830808489B00181881
:100E9000C36993430B43C3617047830804489B00B5
:100EA0001B181868904308431860704700ED00E075
:100EB00000E400E010B5FFF727FAFFF7ADFD10BD25
:100EC00070B596B0002410200994022504900520E6
:100ED00001260095C00403960A9008950B94684675
:100EE000FFF7CAFB002800D0FEE707200C900E9405
:100EF00001210D950F940CA8FFF7D6FA002800D019
:100F0000FEE710A810961294FFF752FA002800D0BE
:100F1000FEE7FFF75FFB7D21C900FFF7E7F8FFF76A
:100F200063FD0420FFF752FD00221146501EFFF71B
:100F30003BFA16B070BD000013480168012211434E
:100F400001604168114A114041600168104A114036
:100F500001600168012292049143016041683F22CF
:100F6000120491434160C16A09090901C162016B20
:100F7000FF22543291430163416B490849004163A8
:100F80000021816070470000001002400CB8FFF89B
:100F9000FFFFF6FE10B5818CC90707D001684A68CB
:100FA00001235B049A43836A1A434A60818C890750
:100FB00007D501684A6801231B049A43C36A1A4390
:100FC0004A60818C490707D501684A6801239B0460
:100FD0009A43036B1A434A60818C090707D501685D
:100FE0004A680123DB039A43436B1A434A60818CAE
:100FF000C90607D50268916801231B039943836BD7
:1010000019439160818C890607D501688A6801239C
:101010005B039A43C36B1A438A60818C490612D5DD
:1010200003685A6801210905046C8A4322435A6007
:10103000026C8A4207D10268516803235B05994319
:10104000436C19435160818C090607D501684A68D1
:101050000123DB04806C9A4302434A6010BD000008
:10106000F8B500260446C666FFF748F90546144958
:10107000206888421DD10068124F000709D5012160
:101080002B46002249052046009700F04CF9002825
:101090000DD12068006840070BD501212B460022A6
:1010A00089052046009700F03EF9002801D0032072
:1010B000F8BD202060346072A07226720020F8BD56
:1010C00000380140FFFFFF0110B5406A00220146D1
:1010D00040314A834A82FFF7A4FC10BD01680A68C8
:1010E000FF2321339A430A6001688A68520852003C
:1010F0008A60202160308172704710B501680A68EB
:1011000040239A430A60202269210A54FFF75AFEBD
:10111000002010BD70B50246403203466033948B08
:101120009D7A0168222D05D08869082210438861C4
:10113000022070BD898C012685683603B54202D134
:101140000569002D0BD02140446D651C456521705B
:10115000518B491E0904090C518307D015E0456DD8
:1011600021402980416D891C4165F1E701680A68C9
:10117000FF242134A2430A6001688A6852085200A1
:101180008A6020219972FFF78DFD002070BD00005C
:10119000F8B504462369A268E5691A43636910201B
:1011A0002B43002125681A432B680E463E4F3B40D7
:1011B00013432B6023685A6803252D03AA43E5686F
:1011C0002A435A60236AA26925681A43AB680B2731
:1011D0003F02BB431343AB60344A2568954210D1AC
:1011E000334A126B9207920F0ED0012A05D0022AC1
:1011F00005D0032A09D1022007E0042005E00820D9
:1012000003E02C4A954200D100200122E369D20379
:10121000934224D100280CD002280DD0042813D0EA
:10122000082817D001260A0912010807400F1043A9
:101230002FE0FFF7D5F909E061681F4A48088018D8
:10124000FEF754FF81B2EEE7FFF7DAF9616840007C
:101250004A08F4E76168012248081204EFE7002811
:1012600008D0022809D004280BD0082814D0012661
:101270003046F8BDFFF7B4F905E061680F4A480849
:101280000CE0FFF7BDF961684A088018FEF72EFFF1
:1012900080B22168C860EBE7616848088018FEF7F3
:1012A00025FF80B2E860E3E7F369FFFF0038014003
:1012B00000100240004400400024F40000127A00B4
:1012C0006921095C212901D0022070470246403281
:1012D000518A002912D0012381681B03994202D14F
:1012E0000169002915D0C16C4B1CC36400680978E2
:1012F0000185508A401E50820020704701680A68AC
:1013000080239A430A60006801684022114301600B
:10131000F2E7C16C03680988C905C90D1985C16C5C
:10132000891CC164E5E7FFB581B017460E46044647
:101330000A9D1DE0681C1BD0002D05D0FEF7DEFFC6
:101340000499401AA84213D920680168FF22A132EB
:10135000914301602068816849084900816020202C
:1013600060346072A07200202072032005B0F0BDCE
:101370002068C1693046884304D00020B842D9D0E3
:101380000020F3E70120F9E710B50248FFF74AFB18
:1013900010BD0000100000200FB410B504A9074BC9
:1013A00002AA039800F01CF8044602A9002000F0ED
:1013B000BFF8204610BC08BC04B01847311500081F
:1013C00002E008C8121F08C1002AFAD1704770470E
:1013D000002001E001C1121F002AFBD1704700006C
:1013E000FFB58DB00446002506E025280AD0109AE6
:1013F0000F999047641C6D1C20780028F5D1284671
:1014000011B0F0BD00270121484A009700E00743D2
:10141000641C23780846203B98401042F7D120787E
:101420002E2817D1042007436078641C2A280CD189
:101430000E98641C02C800910E900BE000990A22DD
:10144000514330394018641C0090207801463039EF
:101450000929F3D920780028D1D0642808D0692838
:1014600006D075281ED0109A0F9990476D1C5BE02E
:101470000A200E99019001C90E91002802DA40421B
:101480002D2102E0390504D52B216A461172012174
:1014900003E0F90704D02021F7E70BAE0B910DE034
:1014A0000021FAE70A200E99019001C90E91F7E791
:1014B0000199FEF71BFE3031761E31700028F7D1FE
:1014C00003A8801B20300190780701D5009801E027
:1014D000012000900199884201DD401A00E00020BF
:1014E0000027009006E002A8109AC05D0F9990476F
:1014F0006D1C7F1C0B988742F5DB04E0109A3020AE
:101500000F9990476D1C0099481E00900029F5DC4A
:1015100005E03078109A761C0F9990476D1C019960
:10152000481E01900029F4DC641C65E709280100CD
:101530000A68531C0B60107070470000FEF7ECFE49
:10154000FFF7BEFCFFF740FCFFF772FC17A0FEF7A9
:10155000F5FD01221C491D48FFF760FBFFF73AF833
:10156000194C0246A41E6060184819A1D430FFF738
:1015700013FF18A0FEF7E2FD1448D430FEF7DEFD9D
:1015800018A0FEF7DBFD00257D26F6006078012817
:10159000FCD115A0FEF7D2FD0C4933466422703110
:1015A0000A48FFF7ABFB6570F0E7000053544D337A
:1015B000324630353120446973636F766572792025
:1015C000426F6172640A00000A00002010000020CF
:1015D0002575000053797374656D20436C6F636BE0
:1015E0003A2000000A0000004461746120526563E3
:1015F00065697665643A2000000000000000000084
:1016000001020304060708090000000001020304A8
:10161000301600080000002010000000C013000871
:10162000401600081000002008050000D013000834
:1016300000127A000000000000000000000000001E
:04000005080000BD32
:00000001FF
